{
  "contractName": "SimpleStorage",
  "abi": [
    {
      "inputs": [
        {
          "internalType": "uint256",
          "name": "_a",
          "type": "uint256"
        }
      ],
      "name": "setter",
      "outputs": [],
      "stateMutability": "nonpayable",
      "type": "function"
    },
    {
      "inputs": [],
      "name": "getter",
      "outputs": [
        {
          "internalType": "uint256",
          "name": "",
          "type": "uint256"
        }
      ],
      "stateMutability": "view",
      "type": "function"
    }
  ],
  "bytecode": "0x608060405234801561001057600080fd5b5061020e806100206000396000f3fe608060405234801561001057600080fd5b50600436106100365760003560e01c8063993a04b71461003b578063d423740b14610059575b600080fd5b610043610075565b60405161005091906100ba565b60405180910390f35b610073600480360381019061006e9190610106565b61008b565b005b600060146000546100869190610162565b905090565b60148161009891906101a4565b60008190555050565b6000819050919050565b6100b4816100a1565b82525050565b60006020820190506100cf60008301846100ab565b92915050565b600080fd5b6100e3816100a1565b81146100ee57600080fd5b50565b600081359050610100816100da565b92915050565b60006020828403121561011c5761011b6100d5565b5b600061012a848285016100f1565b91505092915050565b7f4e487b7100000000000000000000000000000000000000000000000000000000600052601160045260246000fd5b600061016d826100a1565b9150610178836100a1565b9250828202610186816100a1565b9150828204841483151761019d5761019c610133565b5b5092915050565b60006101af826100a1565b91506101ba836100a1565b92508282019050808211156101d2576101d1610133565b5b9291505056fea26469706673582212206602c0a86cce41eea2ed01f0d8dfe975793c17af48e1bc012c3f1281a7c8f24464736f6c63430008130033",
  "immutableReferences": {},
  "source": "// SPDX-License-Identifier: MIT\r\npragma solidity <=0.8.19;\r\n\r\ncontract SimpleStorage{\r\n    uint256 a;\r\n\r\n    function setter(uint256 _a) public {\r\n        a= _a+20;\r\n    }\r\n    // view --> normal --> pure \r\n    function getter() public view returns(uint256){\r\n        // uint256 _a = a;\r\n        return a*20;\r\n    }\r\n}",
  "sourcePath": "/mnt/d/react-html/nft-openRiver/nftopenriver/contracts/SimpleStorage.sol",
  "compiler": {
    "name": "solc",
    "version": "0.8.19+commit.7dd6d404.Emscripten.clang"
  },
  "schemaVersion": "3.4.16",
  "updatedAt": "2024-04-13T19:09:28.016Z",
  "devdoc": {
    "kind": "dev",
    "methods": {},
    "version": 1
  },
  "userdoc": {
    "kind": "user",
    "methods": {},
    "version": 1
  }
}